:100000000052000000050000FCCC000000000000D1
:1000100000000000000000000000000000000000E0
:10002000022E4A9001FE7401F02222022ADF0236DB
:10003000650000020816D2AF32000002081ED2AFDF
:10004000320000021CBAD2AF320000020826E4904F
:1000500001DEF0A3F0121F8D90018C12107312318B
:100060006BE4FCFD120EF590018C12107F90019054
:10007000E475F001120E5DC3900193E09464900169
:1000800092E094005003020AD490018C121067ECA5
:10009000C0E0EDC0E0EEC0E0EFC0E0900190E0FE17
:1000A000A3E0FBEEFAE4F9F8D0E0FFD0E0FED0E008
:1000B000FDD0E0FC120F9B90018C12107F90018C00
:1000C00012106790018AEEF0A3EFF0A312108B00DC
:1000D0000000009001901231989001FFE07002A39F
:1000E000E06003020AD4900194E07002A3E0600390
:1000F000020AD490013FE0700302096E900186E08D
:100100007002A3E0701D90018AE0FFA3E0900186D9
:1001100012314F1231AA9001967403F0A374E8F0E3
:1001200002097E90018AE0FEA3E0FFC3900187E010
:100130009FFF900186E09EFE12370C9001B01210D6
:10014000C8EE8FF0120ED6900184E0701D9001B0C1
:10015000123157C39406E5F094005008123154123E
:1001600031AA80069001847401F090018AE0FEA318
:10017000E0FFD3900187E09F900186E09E4007E476
:10018000900185F080189001857401F08010900135
:1001900086123198900184F0900198123199900163
:1001A00084E07003020AD4D3900189E094009001A6
:1001B00088E094005003020AD4123154FF90018861
:1001C000E0FCA3E0FDC3EF9DFFE5F09CFE12370CC1
:1001D0009001E0EEF0A3EFF0A3E4F074C812315206
:1001E000D39494E5F09411400A9001E27403F0A3D3
:1001F0007420F09001E0E0FFA3E09001B412314FD1
:10020000D312315E400CD39001E1E094641231824C
:10021000501312315412315D50369001E1E094C810
:10022000123182402BE4900184F0900186F012316B
:100230005212315D9001945008E4F0A374C8F0802C
:10024000077401F0A3742CF0E4900185F0020AD445
:10025000123154FFD312315F404AD312317C4044F3
:100260009001081210C874FF75F0F9120E9E9001EB
:100270009AE475F007120E5DC3900199E0943090F6
:100280000198E09475501DA3E09407900198E094C4
:1002900000400A74FF75F0F9120E5D8007E49001CA
:1002A00098F0A3F012315412315D504812317C4065
:1002B000439001081210C8E475F007120E9E9001D9
:1002C00098E475F007120E5DC390019BE0943090A6
:1002D000019AE09475501DA3E0940790019AE09470
:1002E00000400A74FF75F0F9120E5D8007E490017A
:1002F0009AF0A3F090013FE060179001D4E0700203
:10030000A3E0700D1231749001D4CFF0A3EFF08010
:100310001F90013FE07019123154C394FAE5F09434
:1003200000500DE49001D4F0A3F09001D8F0A3F0B8
:100330009001D4E07002A3E07003020BD812316B7D
:10034000C39001D5E09FFF9001D4E09EFE12370CD0
:100350009001DEEEF0A3EFF012316BD39001D5E007
:100360009F9001D4E09E400D9001DEE0FFA3E0905D
:1003700001D6CF801A9001DEE0FEA3E0FFD394C83F
:10038000EE9400400EEE13FEEF13FF9001D6EEF058
:10039000A3EFF0D39001D7E0940A9001D6E0940047
:1003A0004056123154D39488E5F0941340239001C1
:1003B000D9E094DC9001D8E09405503C9001D7E05E
:1003C00025E0FE9001D6E0339001D8F0A3CEF08076
:1003D00027123154D394E8E5F09403401B9001D9DF
:1003E000E094F49001D8E09401500D9001D6E0FF24
:1003F000A3E0A3CFF0A3EFF0900213E06401600349
:10040000020CC990013FE06003020CB69001A6E027
:100410007002A3E0700B1231749001A6CFF0A3EF2D
:10042000F012316BC39001A5E09F9001A4E09E50B3
:1004300004EE1231A29001AAE07002A3E0705A12F9
:10044000316BD31231B540129001A7E09FFF9001AC
:10045000A6E09E9001A8F0A3EFF0D39001A9E0944C
:10046000049001A8E0940040081231897464F0807F
:1004700015D39001A9E094069001A8E094004006ED
:1004800012318974C8F09001AA7403F0A374E8F0E3
:100490001231749001A6CF800D12316BC31231B5A9
:1004A00050089001A6EEF0A3EFF09001ACE07002CE
:1004B000A3E070121231741231A1E49001AEF0A3E6
:1004C000F09001DA80209001AEE0FFA3E09001DA25
:1004D000CFF0A3EFF0221231741231A1E49001DACF
:1004E000F0A3F09001AEF0A3F022E709F608DFFADE
:1004F0008046E709F208DFFA803E88828C83E709AC
:10050000F0A3DFFA8032E309F608DFFA8078E30926
:10051000F208DFFA807088828C83E309F0A3DFFAA7
:10052000806489828A83E0A3F608DFFA8058898292
:100530008A83E0A3F208DFFA804C80D280FA80C67A
:1005400080D4806980F28033801080A680EA809A0F
:1005500080A880DA80E280CA803389828A83ECFABC
:10056000E493A3C8C582C8CCC583CCF0A3C8C58218
:10057000C8CCC583CCDFE9DEE7800D89828A83E4BD
:1005800093A3F608DFF9ECFAA9F0EDFB2289828A41
:1005900083ECFAE0A3C8C582C8CCC583CCF0A3C85D
:1005A000C582C8CCC583CCDFEADEE880DB89828ADD
:1005B00083E493A3F208DFF980CC88F0EF60010EAA
:1005C0004E60C388F0ED2402B4040050B9F582EB0C
:1005D0002402B4040050AF2323458223900D1A73E4
:1005E000EF8DF0A4A8F0CF8CF0A428CE8DF0A42E2F
:1005F000FE22BC000BBE0029EF8DF084FFADF0227F
:10060000E4CCF875F008EF2FFFEE33FEEC33FCEE90
:100610009DEC984005FCEE9DFE0FD5F0E9E4CEFD83
:1006200022EDF8F5F0EE8420D21CFEADF075F00856
:10063000EF2FFFED33FD4007985006D5F0F222C3AF
:1006400098FD0FD5F0EA22C2D5EC30E709B2D5E427
:10065000C39DFDE49CFCEE30E715B2D5E4C39FFFDB
:10066000E49EFE120DD2C3E49DFDE49CFC800312C7
:100670000DD230D507C3E49FFFE49EFE22C5F0F8FB
:10068000A3E028F0C5F0F8E582158270021583E03A
:1006900038F022BB010A89828A83E0F5F0A3E022C8
:1006A000500687F009E71922BBFE07E3F5F009E3DE
:1006B000192289828A83E493F5F074019322BB01A5
:1006C0000789828A83020E5D500B09C5F027F7C5A2
:1006D000F01937F722BBFE0D09F8E325F0F3C5F05A
:1006E00019E338F322F889828A8374019325F0C5CF
:1006F000F0F8E4933822BB010A89828A83F0E5F09E
:10070000A3F0225006F709A7F01922BBFE06F3E575
:10071000F009F31922EF2BFFEE3AFEED39FDEC382C
:10072000FC22C3EF9BFFEE9AFEED99FDEC98FC22B4
:10073000E88FF0A4CC8BF0A42CFCE98EF0A42CFC68
:100740008AF0EDA42CFCEA8EF0A4CDA8F08BF0A4E6
:100750002DCC3825F0FDE98FF0A42CCD35F0FCEB45
:100760008EF0A4FEA9F0EB8FF0A4CFC5F02ECD390A
:10077000FEE43CFCEAA42DCE35F0FDE43CFC227501
:10078000F008758200EF2FFFEE33FECD33CDCC3372
:10079000CCC58233C5829BED9AEC99E58298400CDA
:1007A000F582EE9BFEED9AFDEC99FC0FD5F0D6E4B8
:1007B000CEFBE4CDFAE4CCF9A88222B800C1B9009E
:1007C00059BA002DEC8BF084CFCECDFCE5F0CBF9FF
:1007D0007818EF2FFFEE33FEED33FDEC33FCEB33F7
:1007E000FB10D703994004EB99FB0FD8E5E4F9FA25
:1007F000227818EF2FFFEE33FEED33FDEC33FCC90A
:1008000033C910D7059BE99A4007EC9BFCE99AF99C
:100810000FD8E0E4C9FAE4CCFB2275F010EF2FFF0B
:10082000EE33FEED33FDCC33CCC833C810D7079B75
:10083000EC9AE899400AED9BFDEC9AFCE899F80FD8
:10084000D5F0DAE4CDFBE4CCFAE4C8F922EB9FF56D
:10085000F0EA9E42F0E99D42F0EC6480C864809822
:1008600045F022EB9FF5F0EA9E42F0E99D42F0E868
:100870009C45F022E8600FECC313FCED13FDEE1372
:10088000FEEF13FFD8F122E0FCA3E0FDA3E0FEA3FE
:10089000E0FF22E0F8A3E0F9A3E0FAA3E0FB22ECFA
:1008A000F0A3EDF0A3EEF0A3EFF022A8828583F091
:1008B000D083D0821210A21210A21210A21210A283
:1008C000E473E493A3C583C5F0C583C8C582C8F0AB
:1008D000A3C583C5F0C583C8C582C822A42582F5F7
:1008E00082E5F03583F58322E0FBA3E0FAA3E0F98B
:1008F00022EBF0A3EAF0A3E9F022EC8EF0A4CCC541
:10090000F0CCCDF8EFA4CEC5F02DFDE43CFCE8A47E
:100910002EC8C5F03DFDE43CFCEFA4FFE5F028FE49
:10092000E43DFDE43CFC22EF4E6012EF60010EED71
:10093000BB010B89828A83F0A3DFFCDEFA2289F0F7
:100940005007F709DFFCA9F022BBFEFCF309DFFC2E
:10095000A9F02212267D707A7F011230DE12261C49
:10096000902E20E030E2F9900213E025E0241CF5FF
:1009700082E434371226429001E31226057F0112E9
:1009800036EF90015F12269370089001E312269AC9
:10099000801AEF25E0FFEE33FE9001E4E02FFF9098
:1009A00001E3E03EFE7C007D03120DD2EE12263AFA
:1009B0004E700312263212263290015BE07002A3C1
:1009C000E0700F90015FE0FFA3E090015BCFF0A328
:1009D000EFF09001E512108B00002710E4FF1230B9
:1009E000DEE49001E0F09001E0E0FF7E00C39404BB
:1009F000748094804003021406EF2401FFEE33FE5E
:100A0000122660FDD3EF9D7480F86E9840030213A8
:100A1000FDE4FF12261C902E20E030E2F990021334
:100A2000E025E0241BF582E434371226429001E1F0
:100A3000122605FF1236EF12267D702B90015FE023
:100A4000FEA3E0FFC390015CE09FFF90015BE09E8E
:100A50009001E18FF0120E5D9001E1E0FFA3E090C4
:100A60000161CFF0A3EFF074FFF523F524F525F530
:100A700026F527F528E4F529F52AF52BF52CF52D93
:100A8000F52EF532F531F530F52F9001E1E0FFA3B9
:100A9000E09001D0CFF0A3EFF0E4F522C3E522947B
:100AA0000A74809480400302134CE52225E024BEA2
:100AB000F582E43401F583122693600280089001E8
:100AC000E1E0FEA3E0FF1225F7EEF0A3EFF0122520
:100AD000F7E0FEA3E0FFD3952AEE95294012852B7F
:100AE0002D852C2E85292B852A2C8E298F2A802234
:100AF000D3EF952CEE952B400C852B2D852C2E8E2F
:100B00002B8F2C800DD3EF952EEE952D40048E2D3E
:100B10008F2EC3EF9524EE95235012852527852629
:100B2000288523258524268E238F248022C3EF95B4
:100B300026EE9525500C8525278526288E258F267F
:100B4000800DC3EF9528EE952750048E278F28122D
:100B500025F7122657E5322FFFE5313EFEED353001
:100B6000FDEC352F1225D2052202127CAE29AF2AC8
:100B7000EFFB1225BEAE2BAF2C1225BBAE2DAF2E38
:100B80001225BBAE23AF241225BBAE25AF261225FE
:100B9000BBAE27AF281225BBFC780212105490017F
:100BA000D2EEF0A3EFF090015D1226937008900151
:100BB000D212269A801E7C007D03120DC09001D3B4
:100BC000E02FFF9001D2E03EFE7802EFCEC313CEBD
:100BD00013D8F9FF90015DEEF0FAA3EFF0FB1226B7
:100BE000549001EA12107FEBFFEAFEE4FCFD900155
:100BF000EE12107FE4FF121E2D900165EEF0A3EFC0
:100C0000F012267D1226A4900165E0FEA3E02400E8
:100C1000FFEE34E8FE3395E0FDFC1226AA9001E0D9
:100C2000E004F00211C6902E23E4F01226A4E8C0DE
:100C3000E0E9C0E0EAC0E0EBC0E0122660FFFBE4C0
:100C4000FAF9F8122684123487D0E0FBD0E0FAD00B
:100C5000E0F9D0E0F81226AAE47F507EC3FDFC1232
:100C600026A4D312102D400A9001E512108B00002B
:100C7000C350122684EC33500A9001E512108B0009
:100C800000000090016BE0FAA3E0FB4A7005122619
:100C90008480227E007F02EBFDEAFC1210DAECF881
:100CA000EDF9EEFAEFFB122684120EF5E47B03FA5F
:100CB000F9F8120F9B90016BEEF0A3EFF090015941
:100CC000E07002A3E0700F90016BE0FFA3E09001E1
:100CD00059CFF0A3EFF09001261210731226541290
:100CE0000EF590012612107F90012AE475F0011292
:100CF0000E5D90012AE0FEA3E0FFD3940AEE94007B
:100D00004029EFFBEEFAE4F9F89001261210671281
:100D10000F9B900124EEF0A3EFF0E490012AF0A3E2
:100D2000F090012612108B0000000090012CE07062
:100D300002A3E0703A900124E0FEA3E0FFC390011B
:100D400066E09FFF900165E09EFE12370C90012245
:100D5000EEF0A3EFF0D39406EE9400401290012C35
:100D60007403F0A374E8F0A3E475F001120E5D9033
:100D7000016BE0FEA3E0FF221229A1400302183616
:100D8000900108122974FDE5F0FC122971FFAEF004
:100D9000D39DEE9C402E122A12D3EF9430EE947520
:100DA000400C9001DE7475F0A37430F08010120EC8
:100DB00073C39DFEE5F09C9001DEF0A3CEF0E490BD
:100DC00001B68060120E73FFAEF0C3ED9FFBEC9E88
:100DD000FAD3EB9410EA9427400C9001DE7427F0CC
:100DE000A37410F08009C3ED9FFFEC9E1229C790F9
:100DF00001DEE0FFA3E09001B6CFF0A3EFF03007F3
:100E000018D3E0942C9001B6E0940140139001B8FF
:100E10007427F0A37410F08007E49001B8F0A3F0F9
:100E2000E49001DEF0A3F090013FE0604A12297ADD
:100E3000D39400EE648094804014D3EF9509EE952E
:100E400008400B900205E4F0A37464F0801BD3907B
:100E50000206E09400900205E09400400C90010529
:100E6000122974FFE5F01229C7D20490020B740F07
:100E7000F0A374A0F0800B9002091229E3E4FF12A2
:100E8000358AD39001DFE094009001DEE064809425
:100E900080500302180BE0FEA3E0FF900105122929
:100EA0006812297AEE3395E0FDFCE47BB87A88F984
:100EB000F8C312102D500A9001DE7488F0A374B8A4
:100EC000F0D3900208E09400900207E094005008EC
:100ED0009000F1E06420701B12297AC39509EE9509
:100EE000085010EF9400EE6480948040357C007DC3
:100EF0000A802930072C90013FE0701112297AC333
:100F00009515EE9514501B7C027DBC800F12297A3A
:100F1000C39509EE9508500A7C027DBC120E27127B
:100F200029C690013FE07003021790900209E0701B
:100F300002A3E070149001DEE0FEA3E0FDEEFCE40D
:100F4000FF1218371229C6803512297AC39001354D
:100F5000E09FFF900134E09EFE12370CD3EF9428FF
:100F6000EE648094804017D390020AE094C8900207
:100F700009E09400400874FF75F09C120E5D90012A
:100F800034E0FEA3E0FF7C007D0F1210DAECF8EDF8
:100F9000F9EEFAEFFB12297AEE3395E0FDFC120E22
:100FA000F5E47B10FAF9F8120F9B900134EE800BF8
:100FB0009001DEE0FFA3E0900134CFF0A3EFF090CA
:100FC0000134E0FEA3E0FFD39405EE9400400EEF61
:100FD0009410EE940050069001DEEE8016900130E1
:100FE000E0FEA3E0FF900135E02FFF900134E03EEA
:100FF0009001DEF0A3EFF0D39001DFE09430900198
:10100000DEE0648094F540077475F0A37430F0E579
:10101000DB5404704112297A90010E122968900164
:10102000DFE024A8FF9001DEE08022E5DB540470BD
:1010300025122995900130E0FEA3E0FF90010E12E9
:10104000296890010E12297424A8FFE5F03461FE8E
:1010500090010B122968229001E0EFF0A3ECF0A3BD
:10106000EDF0EF122C17E0FEA3E0C39DFFEE9CFE17
:1010700012370CD3EF9428EE64809480401C122B1E
:10108000E712108B00000000122BB3E4F0122C3199
:10109000122C13EEF0A3EFF0803B122BA2122C4780
:1010A00040339001E1E0FCA3E0FDD3EF9DEE9C40D6
:1010B0000B9001E0E0122BDAE04401F09001E0E057
:1010C000FF122BA6E0FAA3E0C39DEA9C5007122B67
:1010D000D9E04402F09001E0E0122BECC083C08222
:1010E000121073122C31E4FCFD120EF5D082D08365
:1010F00012107F9001E0E0FF122C3AE475F001122B
:101100000E5DEF75F007A42424F582E43437F583EF
:10111000E493FE740193FF9001E0E0FDC454F024D9
:1011200030F582E43402F583E0FAA3E0C39FEA9E3F
:101130005003021AA3ED122C3AE0FEA3E0FFFBEEEF
:10114000FAE4F9F89001E0E0122BEC121067120FAC
:101150009B9001E312107F122B9CE0FCA3E0C39F45
:10116000FFEC9EFE12370C9001E7EEF0A3EFF0903B
:1011700001E0E0FD75F007A4241FF582E43437F5A3
:1011800083C37401939FE4939E401FED122BA6E04E
:10119000FEA3E04E60149001E0E0FB122C24E0FE80
:1011A000A3E0C394B8EE940B501E9001E0E0FF1250
:1011B0002BA6E0FCA3E04C7008EF122C24E4F0A373
:1011C000F0122B9CEE021A4AEB6003021A509001B7
:1011D000E9F09001E7E0FEA3E0FFD39450EE940025
:1011E0004006A37408F080329001E0E0122BDAE0B0
:1011F00064036026D3EF943CEE940040089001E92C
:101200007404F08015D39001E8E094289001E7E0A1
:10121000940040069001E97402F0122BA2E0FEA3B4
:10122000E0FFE4FCFD122C53D31210434011900157
:10123000E9E0FF122BA2E48FF0120E5D021A86D3B2
:101240009001E8E094509001E7E094004058122BA0
:10125000A2C083C082E0FEA3E0FF9001E9E0FDC3ED
:10126000EF9DFFEE9400D082D083F0A3EFF08036A4
:10127000122BA2E0FEA3E0FF4E700D122C53EBFFE9
:10128000EAFEE9FDE8FC80167C007D071210DA1208
:101290002C53120EF5E47B08FAF9F8120F9B122B6F
:1012A000A2EEF0A3EFF0122BE712108B000000006B
:1012B000122BB3E4F09001E3121067122C13EEF03E
:1012C000A3EFF0122BA2122C47405F9001E2E09FA7
:1012D000FF9001E1E09EFE12370C9001E0E075F016
:1012E00007A42421F582E43437F583D37401939F56
:1012F000E4939E400F9001E0E0FF122BA6122BF921
:10130000E4F080269001E0E0FF75F007A42423F5C7
:1013100082E43437F583E493FE122C05E0C39E503B
:1013200009122BA2122BF9E004F0122C3122D390D7
:101330000200E09F9001FFE09E400AA3E09FF09032
:1013400001FFE09EF0900204123297900203E09CAD
:10135000400CA3E09FF0900203E09EF08002D28A4E
:10136000D3900202E09F900201E09E400AA3E09F1A
:10137000F0900201E09EF01232A950031232E1D344
:10138000900206E09F900205E09E400AA3E09FF0D5
:10139000900205E09EF0D3900208E09F900207E0E3
:1013A0009E400AA3E09FF0900207E09EF0D39002D7
:1013B0000EE09F90020DE09E400AA3E09FF0900295
:1013C0000DE09EF0D390020AE09F900209E09E405B
:1013D0000AA3E09FF0900209E09EF0D390020CE097
:1013E0009F90020BE09E400AA3E09FF090020BE06A
:1013F0009EF0D39001B9E09F9001B8E09E400AA30F
:10140000E09FF09001B8E09EF090021012329790A9
:10141000020FE09C400AA3E09FF090020FE09EF0D4
:101420001232B750031232E1D3900195E09F900140
:1014300094E09E400AA3E09FF0900194E09EF0901B
:1014400001971232E7900196E09C400AA3E09FF0DA
:10145000900196E09EF0D39001ABE09F9001AAE04E
:101460009E400AA3E09FF09001AAE09EF0D3900175
:10147000ADE09F9001ACE09E400AA3E09FF0900198
:10148000ACE09EF09001721232E7900171E09C4056
:101490000AA3E09FF0900171E09EF0D39001BBE0C1
:1014A0009F9001BAE09E400AA3E09FF09001BAE04D
:1014B0009EF01232C550031232E11232D3500312A1
:1014C00032E1D390012DE09F90012CE09E400AA3D1
:1014D000E09FF090012CE09EF022C0E0C0F0C083BD
:1014E000C082C0D0E8C0E0D2AFD3900200E0940048
:1014F0009001FFE094004003123290D3900204E088
:101500009401900203E0940040051232908002D2D0
:101510008AD3900202E09400900201E0940040031C
:101520001232901232A950031232A2D3900206E076
:101530009400900205E094004003123290D3900290
:1015400008E09400900207E094004003123290D328
:1015500090020EE0940090020DE0940040031232DD
:1015600090D390020AE09400900209E094004003B6
:10157000123290D390020CE0940090020BE09400A1
:101580004003123290D39001B9E094009001B8E08A
:1015900094004003123290D3900210E09401900224
:1015A0000FE0940040031232901232B7500312320F
:1015B000A2D3900195E09400900194E09400400340
:1015C000123290D3900197E09401900196E094003C
:1015D0004003123290D39001ABE094009001AAE056
:1015E00094004003123290D39001ADE0940090013A
:1015F000ACE094004003123290D3900172E0940169
:10160000900171E094004003123290D39001BBE04E
:1016100094009001BAE0940040031232901232C557
:1016200050031232A21232D350031232A2D39001CD
:101630002DE0940090012CE094004003123290D0F1
:10164000E0F8D0D0D082D083D0F0D0E0329001E961
:10165000EFF01228D8E070279001E9E012290F126C
:101660001067E4FBFAF9F8C312104360129001E925
:10167000E012292D121067E4F8C3121043705712BC
:1016800029419001EA121F69EEF0A3EFF0ED122854
:10169000D8E06029ED75F00AA424DBF582E4342D4E
:1016A000F583C083C082900213E0D082D0831228D9
:1016B000E6400A9001E9E01228D87405F012288D5E
:1016C000E0D394007480948040061228D7E014F090
:1016D0009001EE021F6512290A1210679001F212A2
:1016E000107F12292C1210679001F612107F9001C2
:1016F000E9E012291E121067EFF912294AE9F812DF
:101700001054EFFBEEFAEDF9ECF812294A120F0231
:101710009001FA12107F9001F21210679001EE1200
:101720001073120EF59001FA121073120EF51229B1
:101730003B12290A12294712292C12294712295033
:10174000121073120F9B12293B9001F6121F69EEC3
:10175000F0A3EFF0ED75F00AA424D7F582E4342D60
:10176000F583C083C082900213E0D082D083122818
:10177000E6400F12288D7405F01229419001F612EF
:10178000107F9001F612106722EFFBEEFA1210673D
:10179000C3EF9BFFEE9AFE12370C9001E9E0FD7556
:1017A000F013A4241EF582E43402F58322758D2003
:1017B000438D20538D7FE4F5B275B6FF75B7FF7585
:1017C000B2A243B20153A8FB538B7F758B10438B9E
:1017D00008E58B20E7030080F8538B7F758B11435E
:1017E0008B08E58B20E7030080F8900241E5B5F017
:1017F000A3E5B4F0758B01E4F5B2123665E4F58D1E
:1018000090011DE0FEA3E0FF4E70101236CBFD905C
:10181000011DE5F0F0A3EDF00220761236CBFDC3FA
:10182000EF9DFFEE95F0FE12370CD3EF940AEE64B5
:1018300080948040241236CBFFC390011EE09F901D
:10184000011DE095F05006E475F001800790011D40
:1018500074FFF5F0120E5D803D90011D7D03123680
:10186000D4ECC0E0EDC0E0EEC0E0EFC0E01236CB5B
:10187000FFAEF0E4FCFDD0E0FBD0E0FAD0E0F9D020
:10188000E0F8120EF5E47B04FAF9F8120F9B9001D0
:101890001DEEF0A3EFF0900213E0640190011D70C3
:1018A0000A7D051236D4E47B64800AE0FEA3E0FFE3
:1018B000E4FCFD7B0AFAF9F8120F9B90019CEEF014
:1018C000A3EFF090019EE07002A3E0700D90019CE8
:1018D000E0FFA3E0A3CFF0A3EFF09001A4E070023B
:1018E000A3E0700F90011DE0FFA3E09001A4CFF0F2
:1018F000A3EFF02290017D122A199404EE94005077
:10190000221229DAEF25E0FFEE33FE74752FF582FF
:1019100074013EF583ECF0A3EDF090017D1229F601
:1019200002219F9001E27401F09001E2E0FFC312F6
:1019300029B25021EF1229B9FCA3E0FDEF25E024E4
:1019400073F582E43401F583ECF0A3EDF09001E24D
:10195000E004F080D490013FE060028053122971CE
:10196000FF1229DAC3EF9DFFE5F09CFE12370CC38E
:10197000EF9428EE64809480503690010812297408
:10198000FFC3900101E09FFF900100E095F0FE127F
:10199000370CC3EF9414EE648094805005900108D6
:1019A0008003900102122974FF90017BE5F0800B07
:1019B000900100E0FFA3E090017BCFF0A3EFF09057
:1019C00001DE12108B00000000E49001E2F09001B3
:1019D000E2E0FFD390017EE09F90017DE094004023
:1019E000259001DE1210739001E2E01229B9FEA3E6
:1019F000E0FFE4FCFD120EF59001DE12107F900175
:101A0000E2E004F080C89001DE121067ECC0E0ED67
:101A1000C0E0EEC0E0EFC0E090017D1229FDD0E013
:101A2000FFD0E0FED0E0FDD0E0FC120F9B9001DE85
:101A300012107F9001DE0210679001DE1229E3D3BD
:101A40009001BBE094009001BAE09400401112298B
:101A500071FF9001081210C8E5F08FF0120ED690B9
:101A600001FFE07002A3E0600B9001DEE4F0A374DC
:101A700064F0800B90001AE0641170037420F09001
:101A8000013FE0600F7E007F0A7D007B017A0179D3
:101A900040021107900140121073E8C0E0E9C0E075
:101AA000EAC0E0EBC0E0122971FFAEF0E4FCFDD02B
:101AB000E0FBD0E0FAD0E0F9D0E0F8120EF59001AA
:101AC0004012107F9001441229F69001DE122A196B
:101AD000900149E09F900148E09E500302235990F5
:101AE0000140121067ECC0E0EDC0E0EEC0E0EFC0D6
:101AF000E09001441229FDD0E0FFD0E0FED0E0FDEF
:101B0000D0E0FC120F9B90014012107F9001081250
:101B100029742432FFE435F0FEE4FCFD900140120C
:101B20001073D3121043402E9001FFE07002A3E027
:101B300070242004219001461229F7D3900147E038
:101B40009405900146E09400401812295FE490014A
:101B500046F0A3F0800C12295FE4900146F0A3F058
:101B6000C20490014012108B00000000E490014478
:101B7000F0A3F0900148F0A3F0227FFF7A007900F3
:101B80001236B67FDE7A0179001236B67E007F14F7
:101B90007D007B017A0179FE121107902DE0E4931C
:101BA000900001F09000047411F0A37422F0A3746B
:101BB00033F0902DE2E493900012F0902DE3E49343
:101BC000900014F09000FB7401F09000367410F057
:101BD0009000F1F0900024F0A37420F07B017A00D3
:101BE00079409001021210D17A00794490010812D4
:101BF00010D17A0079429001051210D17A00792E25
:101C000090010B1210D17A00792A90010E1210D196
:101C10007A0079289001111210D17A007960900130
:101C20001F1210D17A0079809001B01210D17A0081
:101C300079189001391210D17A00791B900136126F
:101C400010D17A0079329001141210D17A007926DD
:101C50009001171210D17A00793490011A1210D124
:101C60009001141210C8740175F05E120ED6900126
:101C7000171210C8E475F0AF120ED690011A1210A8
:101C8000C8E475F0FA120ED675140175155E750864
:101C9000007509FA7B017A00795090013C1210D14D
:101CA0009000521236BF9000581236BF9001FFF0DC
:101CB000A374D0F0E49001FEF0229001E5EFF090E3
:101CC0002E22E0FF9001E9E4F0A3EFF0758A509036
:101CD0002E227401F012335F7404F0A3E4F090013B
:101CE000E6F09001E6E0FFC3940D74809480400319
:101CF0000225AEEFF87E02E4088006CEA2E713CEFE
:101D000013D8F8FF9001E7EEF0A3EFF04E700790C4
:101D100001E7F0A304F0902E207401F0902E20E053
:101D200030E2F99001E5E0FF902E00123366E0FC0E
:101D3000A3E0D394FEEC9407404012338DE0FEA361
:101D4000E0FF9001E7E0FCA3E0FDEF2DFFEE3CFE9D
:101D5000C3EF94FFEE94079001E5E075F002902E3A
:101D600010500B1210BCEC8DF0120E5D8050121052
:101D7000BC7407F0A374FFF080449001E5E0FF120B
:101D80003363E0FCA3E0FD9001E7E0FAA3E0FBD3BE
:101D9000ED9BEC9A402112338DC083C082C3A3E037
:101DA0009BFF0582D5820215831582E09AD082D0EE
:101DB00083F0A3EFF0800712335FE4F0A3F0902EDE
:101DC00020E4F0F58D9001E6E004F00224C29001D9
:101DD000E9A3E0902E22F0758A3022CBEFCBEEFA09
:101DE000C3E5329BFFE5319AFEE5309400FDE52F17
:101DF00094008F328E318D30F52F22900213E02522
:101E0000E0241BF582E43437F583E5822FF582E484
:101E10003583F583E49322E52225E024BCF582E4B2
:101E20003401F58322CFF0A3EFF0902E20E4F0539D
:101E3000B2E1758A3043B21043B2022212364853DF
:101E4000B2E143B20C758A5043B202902E20740165
:101E5000F0229001E3E0FFA3E0CF90015FF0A3EF59
:101E6000F022F583E49375F002902E001210BCE08E
:101E7000FFA3E022900165E0FEA3E0FFE4FCFD2269
:101E8000900213E02443F582E43402F583E022F566
:101E900083E4932420F582E4342EF5832290021308
:101EA000E06401229001E50210677F047E007D005E
:101EB0007B0122E0FEA3E0FF4E22E0FCA3E0FDEC6C
:101EC000FEEDFF229001E5021073120EF59001E580
:101ED00002107F7F5E7E017DFA7C001229A1400303
:101EE0000227A53007209001B8E07002A3E0600847
:101EF00075141375158880067514077515D0750847
:101F000006750940804A900213E0F9640170077E6B
:101F1000017F5EFC7DFA9001D8E0FAA3E0FB2FF58B
:101F200015EA3EF514CEECCEEDFFEB2FF509EA3EB7
:101F3000F508E964017019A3E0FEA3E0FF2515F59B
:101F400015EE3514F514EF2509F509EE3508F508F9
:101F5000900105122974FFAEF0C39515EE9514504B
:101F60000F90013FE0601AC3EF9509EE950840110C
:101F7000900207E07002A3E0702990013F04F08016
:101F8000229000F1E064209002077005F0A3F08039
:101F9000077401F0A374F4F0E490013FF09002059F
:101FA000122A0890013FE0FF6016900024E06410C0
:101FB00090003670057410F080037420F01229EB45
:101FC00090004BEFF022E4F526F525F524F523F5F6
:101FD00026F525F524F523F5221229AF502AE5220E
:101FE00025E0240AF8E6FE08E6FFE4FCFDE5262FDE
:101FF000FFE5253EFEED3524FDEC35238F268E25AD
:102000008D24F523052280D1E47B04FAF9F8AF266C
:10201000AE25AD24AC23120F9B900181EEF0A3EF0F
:10202000F0E47526A8752561F524F523F52212291B
:10203000AF5055900181122983C3122A1212370C16
:10204000D3EF940AEE648094804012900181E0FE08
:10205000A3E0FF900159E0FCA3E0FD800790015947
:10206000122983C3122A123395E0FDFCE5262FFFC7
:10207000E5253EFEE5243DFDE5233C8F268E258D9E
:1020800024F523052202280EE47F607EEAFDFCABE6
:1020900026AA25A924A823D3121043400BE47526B1
:1020A000607525EAF524F523AE25AF26229001EED2
:1020B0001210679001E9E0FB75F013A42419F58272
:1020C000E43402F58312107FEB75F013A42424F599
:1020D00082E43402F5831210679001EE121073123D
:1020E0000F109001E9E0FB75F013A42415F582E4CC
:1020F0003402F58312107FEB75F013A4241DF582D2
:10210000E43402F5832275F0021210BCE493FE74ED
:102110000193FFED75F013A4241EF582E43402F55B
:1021200083E0FCA3E0D39FEC9E229001E9E0FB75E5
:10213000F013A42419F582E43402F58322EB75F040
:1021400013A42420F582E43402F58322EB75F01306
:10215000A42415F582E43402F583229001F61210CE
:102160007F9001EE02106712107F9001F602106757
:10217000EB75F013A42424F582E43402F583229055
:1021800001401210679001081210C8EE8FF0020E85
:10219000D69001021210C8020E739001DEE0FEA379
:1021A000E0FF22E52225E0240AF8E6FE08E6FFE04B
:1021B000FCA3E0FD229001051210C8E4F5F0020E28
:1021C000D6D3900200E094009001FFE0940022C377
:1021D000E5229404748094802225E02475F582E43D
:1021E0003401F583E022EE9001DEF0A3EFF022123D
:1021F00010C8746175F0A8020ED6900100E0FCA32F
:10220000E0FD227403F0A374E8F02290020174034D
:10221000F0A37420F022E475F001020E5DE0FEA34D
:10222000E0FBEEFAE4F9F822F0A3F0900036741027
:10223000F022EF9DFFEE9CFE22E0FEA3E0FFC32212
:10224000E49001DEF0A3F090014CF0A3F090014A7D
:10225000F0A3F01234CB7E007F047D007B017A0175
:1022600079591211077F0112354E902E14E0FEA30A
:10227000E0FF12335890013C1210C8EE8FF0120E9E
:10228000D6E4FF12354E1233857005902E10800370
:10229000902E1212336C9001DEE0FCA3E0FDC3949B
:1022A00005EC94004009D3ED94F0EC94074017EF4F
:1022B00064014E700590014C8004E490014AF0A343
:1022C000F0E4FF12354E902E23E4F01233857005B2
:1022D000902E108003902E1212336C90001D7410FB
:1022E000F0EF64014E9001DE700812335312339701
:1022F00080061233531233A1E03EFE12337922C01E
:10230000E0C083C082C0D075D018D2AFE5DB30E426
:1023100022D205C202E5DF30E0141236FEE0F5DF1E
:10232000EF64077065D28A900007F0022B8DC2011E
:10233000022B90E5DB30E52C9000F0E064AA7017EA
:10234000758A10F5DAC2AFF5B2F5A8F5A9F58B7567
:102350008E01758DC080FED200300204C202805012
:10236000C205804CC202E5DB30E121E5DB30E04014
:102370001236FEE0F5DFEF24F9600824EE700BD290
:10238000068007D28A900007E4F0802120010A78B5
:1023900016A6DFD201D20280171236FEE5DFF0EF7B
:1023A0006424700990020104F0A374F4F078160616
:1023B00075DBFFD0D0D082D083D0E0329001E31221
:1023C00010679001E0E0C454F0242EF582E434025A
:1023D000F58322EBC454F0242CF582E43402F58317
:1023E000E4F0A3F09001E0E0FFC454F02430F58263
:1023F000E43402F583E4F0A3F0EFC454F02435F59F
:1024000082E43402F583229001E0E0FBC454F0241E
:1024100028F582E43402F58322E0FDA3E09001E197
:10242000CDF0A3EDF0EFC454F02434F582E434028F
:10243000F583229001E0E0C454F02432F582E434C4
:1024400002F58322C454F02436F582E43402F58385
:10245000229001E1E0FEA3E0FF22C454F0242CF519
:1024600082E43402F58322E0FEA3E0FFD39400EE81
:102470009400229001E3021073E49001E2F0A3F0D3
:10248000200603022D08300703022D08C206900221
:1024900013E07005902E108003902E12E0FFA3E051
:1024A0009001E2CFF0A3EFF09001E2E0FFA3E09013
:1024B00001E0CFF0A3EFF0E4FF12354E1233857048
:1024C00005902E108003902E12E0FDA3E09001E213
:1024D000CDF0A3EDF0EF64014E9001E270081233ED
:1024E0005312339780061233531233A1E03E90010A
:1024F000DEF0A3EFF09001DEE0FEA3E0FF123379FF
:10250000900213E09001E07009E0FFA3E0902E102C
:102510008007E0FFA3E0902E12CFF0A3EFF090022F
:10252000017403F0A37420F0221231C01236287E09
:10253000007F2C7D007B017A01798412110712083B
:102540002EE490017DF0A3F090016BF0A3F09001D8
:1025500069F0A3F090016DF0A3F07F04122F649056
:102560000100E0FEA3E0FFA3122968900100E0FE55
:10257000A3E0FF12296512299590010B1229CF9033
:1025800001111229CF90010E122998E490013FF019
:10259000FE7F0AFD7B017A017940121107E4900267
:1025A0000DF0A3F090020B122A08E490004BF012F9
:1025B00029EB900211E0700FC3900200E094F490B8
:1025C00001FFE09401500A9001FF7401F0A374F43C
:1025D000F02212082E7F01122F641220D4900102E3
:1025E0001229681215581226B312221912322D120E
:1025F00035C2022C5903030019001E0014001900F3
:102600000502AB5274AA7583F5758255A57455758C
:1026100083FA7582AAA574A57583F5758255A522DE
:102620000203030AB0B00BB6B60CFFFF09020208A2
:10263000FFFF0D77770E04041307071410101080A6
:1026400080150000160000011212121207100B1064
:10265000100F040404040401010101110608111102
:1026600012180804040301040204787FE4F6D8FD7C
:10267000758132022E94020000022ED9E493A3F851
:10268000E493A34003F68001F208DFF48029E49389
:10269000A3F85407240CC8C333C4540F4420C88380
:1026A0004004F456800146F6DFE4800B0102040882
:1026B000102040809035F9E47E019360BCA3FF5464
:1026C0003F30E509541FFEE493A360010ECF54C0D0
:1026D00025E060A840B8E493A3FAE493A3F8E49358
:1026E000A3C8C582C8CAC583CAF0A3C8C582C8CA60
:1026F000C583CADFE9DEE780BE12369C53A87F128D
:10270000368112235A12350E12080E43A880E4F5C2
:102710008D9000F17420F0122FE49001FEE014601F
:102720001514601714603814604A240470E0122AEB
:102730002012080380D8122D098031122DB290008A
:1027400020E0FF64206008EF642160031230629093
:102750000025E0641070B79001FE7404F080AF12A1
:10276000080A9002017403F0A37420F09001FE7433
:1027700002F0809A12343F900025E06410608F12BE
:102780000803808A9001DEEFF0E4A3F09001DEE020
:10279000FFA3E0C39F502E1211331236DE90016D5D
:1027A000EEF0A3EFF08E12F513C8740AC87400FCA3
:1027B000E4FDFB7A00790CFE7F08120D9A9001DF90
:1027C000E004F080C71227A6900100EEF0A3EFF01E
:1027D00090016B122A19900133E09FFF900132E0C3
:1027E0009EFE12370C7C007D05120E27900130EC06
:1027F000F0A3EDF090016BE0FFA3E0900132CFF089
:10280000A3EFF022900020E0642070037421F09088
:1028100001361210C8120E73641045F070031233A3
:10282000F6900001E064AA70031232F21233AB207A
:10283000030890001AE06410700B90001A7411F0F5
:10284000C2031208039000FBE06006E4F09001FE72
:10285000F0900171E07004A3E064017015900171C3
:10286000F0A3F09001BA7407F0A374D0F0E49001E3
:10287000FEF030000CC2009002017401F0A374F469
:10288000F022308A789001FFE07002A3E0706E9031
:102890000171E07002A3E07064F5B2758D20438D84
:1028A00020758D9043A808D2AF758B4090012CE025
:1028B000FEA3E0FF4E6005758E148003758E3F20E9
:1028C000002F20052CE5DB54047026758AA4200512
:1028D00020E5DB5404701AF5867587030000007547
:1028E0008601EF4E60047F2880027F7F7E00121BEE
:1028F0000E758B01758A3053A8F712366522E4FEF7
:10290000EEC39407748094805038EE75F005A424CB
:1029100028F582E4342EF583C083C082900213E050
:10292000D082D08375F0021210BC1225EAFDEE753C
:10293000F005A42427F582E4342E12266FEDF00E64
:1029400080BEEF7010900213E0700A90014AE070B0
:1029500002A3E0600F12267D701490014CE070021B
:10296000A3E0700A900213E0902E217412F022CF9F
:10297000F0EFA3F09001051210C8020E73C3FF9090
:102980000189E09F900188E095F02290011DE0FE12
:10299000A3E0FF2290011DE0FFA3E0229001E1E00F
:1029A000941E9001E0E09400229001AC7413F0A317
:1029B0007488F0A3E4F0A322E4F0A3F0A3F0A3F062
:1029C00022CF9001A4F0A3EFF022FF900188E5F060
:1029D000F0A3EFF0229001A7E09F9001A6E09E22D5
:1029E0007E007F137D007B017A027915121107E4C6
:1029F000FBEBC39401748094805051900213E0FF6C
:102A0000EB75F00AA424D5F582E4342DF583E58234
:102A10002FF582E43583F583E493FFE4FCFDFE1299
:102A2000291D12107F12291D121067EF04F87E0075
:102A30007401088005C333CE33CED8F9FFEE339549
:102A4000E0FDFC12295012107F0B80A5229002039A
:102A5000E07004A3E064017011900007E06004D20C
:102A60008AE4F0E4900203F0A3F0900036E0FF90D7
:102A700000FFE06F6039900036E0FD9000FFF090BD
:102A80000007E0900214F0540FF0ED7E0064207017
:102A900005E04420800CEF64104E700B900214E0AF
:102AA0004410F0900007F0C28A9002031229E3223A
:102AB00074FFF5F0020E5DEF2401FDE43EFCD3E06F
:102AC0009D22E475F001020E5DC3900149E094E897
:102AD000900148E0940322C3900193E09464900134
:102AE00092E0940022C3900237E094B8900236E05E
:102AF000940B22C3900231E094F4900230E09401F0
:102B000022EE8FF0020E5DEF2401FDE43EFCD3E0E7
:102B10009D229001DE7408F0A3E4F0A3743FF0A3BB
:102B200074DFF0E4FDFCF9758A10538AEF00900120
:102B3000DEE0FEA3E02DF582EE3CF583E493FF6931
:102B4000F90DBD00010CBC37E5BDDFE29001E0E00E
:102B5000FEA3E0F5828E83E493FFE96F7008900096
:102B6000017405F08005E4900001F0758A30538A05
:102B7000EF0022E0FEA3E0FF7C007D0A020DC09082
:102B800001E5E0902E1075F0020210BCE0FDA3E01C
:102B90009001DECDF0A3EDF0229001391210C8EEC5
:102BA0008FF0020ED6900213E0FF7E002275F00235
:102BB000EF902E100210BC90014DE02FFF90014CC1
:102BC0002290014BE02FFF90014A22900013E0FF7A
:102BD000900212E06F600CEFF090020F7402F0A30D
:102BE0007458F090020FE07004A3E0640170269026
:102BF0000212E0FF7E0064107002D207EF64204EE4
:102C00007002C207900025E064106002D203E490D5
:102C1000020FF0A3F022E49001DEF0A3F0758A1019
:102C2000538AEF00122DE475EA81E4F5F6F5F475A8
:102C3000F308F5F275EB0700E5EC30E7FBAFF3EFD7
:102C4000FEADF2EDFF9001361210C8EE8FF0120EBD
:102C5000D6E4F5EC75EB30758A30538AEF0022909C
:102C60000025E06410703FF5B2758D20438D205330
:102C70008D7F53A8F7F58BE5DB5404701320051006
:102C8000F58AF586758703000000758601758A3020
:102C9000758B019002117401F09002017403F0A38E
:102CA0007420F012366522C2D5E830E70FB2D5E4C1
:102CB000C39BFBE49AFAE499F9E498F8EC30E7173F
:102CC000B2D51234BD120F9BE4C39BFBE49AFAE425
:102CD00099F9E498F88003120F9B30D50DE4C39F57
:102CE000FFE49EFEE49DFDE49CFC22E4FFEFC39420
:102CF0000D74809480502E900213E0FEEF75F00367
:102D0000A42401F582E4342EF583E5822E1225ED0C
:102D1000FEEF75F003A42400F582E4342E12266F32
:102D2000EEF00F80C8902F56E0902E2BF022E4F5A5
:102D3000DA75DA4043DA2030881375D74075D6400B
:102D400090021304F09000157440F0801175D74282
:102D500075D642E4900213F09000157441F053923E
:102D6000FE75DA5843A80275B80275F80222900180
:102D7000E4EFF01236489001E4E0FF1230DE9001FB
:102D8000E4E0FF900213E025E0241BF582E43437F1
:102D9000F583E5822FF582E43583F583E493FF1212
:102DA000249A9001E4E0FF0236EF9001E0EFF07E1C
:102DB000007F10EEC0E0EFC0E07D00E075F010A4F1
:102DC0002428F9740235F0FA7B01D0E0FFD0E0FE50
:102DD0001211079001E0E0122C24740BF0A374B8D8
:102DE000F02290015AE02430FF900159E034F8FEBF
:102DF000C390016CE09F90016BE09E5014900171B4
:102E0000E07002A3E0701190017104F0A374F4F07B
:102E100022E4900171F0A3F022C1054202430204B2
:102E2000C1064102140041021300C1074102120011
:102E3000C101011600C100C102C104C1034100FF6C
:102E40001043023E0102410012268A7A01795D1286
:102E5000110712268A7A0179651211077F16122648
:102E60008C7A0179BC021107EFF87401088002C363
:102E700033D8FC42AB1225DB90371893F4529152B1
:102E8000935391DF22E5B254016006E5A854107017
:102E90000F75B29275B67CE4F5B743B20143A81042
:102EA00022758A30538AEF758601758F05E4F5AB7C
:102EB00075AC0F75913E759201D28A2290407F4386
:102EC000EC40E493643B700300800753A87F00004C
:102ED00080FC53ECBF227E007D007B010211077451
:102EE00011F0A37404F0A37407F02290023E1210B4
:102EF000C8020E73E0FEA3E0FF7C000210DA90012E
:102F00006BE0FEA3E0FF900169EEF0A3EFF0221268
:102F100025DB9037189342914288439120227816FE
:102F2000E6FF2400F582E43400F58322EE30E70763
:102F3000C3E49FFFE49EFE22010220000201020082
:102F40009600960701F40000000000000000000059
:102F50000000000000000000000000000000000071
:102F60000000000000000000000000000000000061
:102F70000000000000000000000000000000000051
:102F80000000000000000000000000000000000041
:1037F0000000000000000000000000000000005E6B
:1038000000000000000000000000000000000000B8
:1038100000000000000000000000000000000000A8
:00000001FF
