:100000000053000000050000DFB000000000000009
:1000100000000000000000000000000000000000E0
:10002000022E4A9001FC7401F02222022A95023627
:100030000B0000020816D2AF32000002081ED2AF39
:10004000320000021C67D2AF320000020826E490A2
:1000500001DCF0A3F01221D090018E121058123161
:1000600067E4FCFD120EDA90018E1210649001928A
:10007000E475F001120E42C3900195E09464900182
:1000800094E094005003020AD490018E12104CECBC
:10009000C0E0EDC0E0EEC0E0EFC0E0900192E0FE15
:1000A000A3E0FBEEFAE4F9F8D0E0FFD0E0FED0E008
:1000B000FDD0E0FC120F8090018E12106490018E32
:1000C00012104C90018CEEF0A3EFF0A31210700010
:1000D00000000090019212319C9001FDE07002A39B
:1000E000E06003020AD4900196E07002A3E060038E
:1000F000020AD490013FE0700302096E900188E08B
:100100007002A3E0701D90018CE0FFA3E0900188D5
:1001100012314B1231A59001987403F0A374E8F0EA
:1001200002097E90018CE0FEA3E0FFC3900189E00C
:100130009FFF900188E09EFE12369B9001B2121044
:10014000ADEE8FF0120EBB900186E0701D9001B2F3
:10015000123153C39406E5F0940050081231501246
:1001600031A580069001867401F090018CE0FEA319
:10017000E0FFD3900189E09F900188E09E4007E472
:10018000900187F080189001877401F08010900131
:100190008812319C900186F090019A12319D900155
:1001A00086E07003020AD4D390018BE094009001A2
:1001B0008AE094005003020AD4123150FF90018A61
:1001C000E0FCA3E0FDC3EF9DFFE5F09CFE12369B33
:1001D0009001DEEEF0A3EFF0A3E4F074C812314E0C
:1001E000D39494E5F09411400A9001E07403F0A3D5
:1001F0007420F09001DEE0FFA3E09001B612314BD5
:10020000D312315A400CD39001DFE094641231864E
:10021000501312315012315950369001DFE094C81A
:10022000123186402BE4900186F0900188F0123163
:100230004E1231599001965008E4F0A374C8F08032
:10024000077401F0A3742CF0E4900187F0020AD443
:10025000123150FFD312315B404AD31231804044F7
:100260009001081210AD74FF75F0F9120E83900121
:100270009CE475F007120E42C390019BE09430900D
:10028000019AE09475501DA3E0940790019AE094C0
:1002900000400A74FF75F0F9120E428007E49001E5
:1002A0009AF0A3F012315012315950481231804067
:1002B000439001081210ADE475F007120E8390010F
:1002C0009AE475F007120E42C390019DE0943090BD
:1002D000019CE09475501DA3E0940790019CE0946C
:1002E00000400A74FF75F0F9120E428007E4900195
:1002F0009CF0A3F090013FE0601B9001D2E07002FF
:10030000A3E0701190011DE0FFA3E09001D2CFF0B7
:10031000A3EFF0801F90013FE07019123150C39499
:10032000FAE5F09400500DE49001D2F0A3F09001B2
:10033000D6F0A3F09001D2E07002A3E07003020BAC
:10034000DC123167C39001D3E09FFF9001D2E09EA1
:10035000FE12369B9001DCEEF0A3EFF0123167D372
:100360009001D3E09F9001D2E09E400D9001DCE02F
:10037000FFA3E09001D4CF801A9001DCE0FEA3E05F
:10038000FFD394C8EE9400400EEE13FEEF13FF90DF
:1003900001D4EEF0A3EFF0D39001D5E0940A9001E0
:1003A000D4E094004056123150D39488E5F0941371
:1003B00040239001D7E094DC9001D6E09405503CB6
:1003C0009001D5E025E0FE9001D4E0339001D6F015
:1003D000A3CEF08027123150D394E8E5F094034087
:1003E0001B9001D7E094F49001D6E09401500D9059
:1003F00001D4E0FFA3E0A3CFF0A3EFF0900211E05F
:1004000064016003020CAE90013FE06003020C9EA9
:10041000123167C39001A7E09F9001A6E09E5004AF
:10042000EE1231789001ACE07002A3E070671231F7
:1004300067D39001A9E09F9001A8E09E401290012F
:10044000A9E09FFF9001A8E09E9001AAF0A3EFF021
:10045000D39001ABE094049001AAE094004008120C
:10046000318D7464F08015D39001ABE09406900157
:10047000AAE09400400612318D74C8F09001AC746B
:1004800003F0A374E8F090011DE0FFA3E09001A841
:10049000CFF0A3EFF09001AEE07002A3E0700F1276
:1004A0003170E49001B0F0A3F09001D8801D90016C
:1004B000B0E0FFA3E09001D8CFF0A3EFF02212311B
:1004C00070E49001D8F0A3F09001B0F0A3F022E71F
:1004D00009F608DFFA8046E709F208DFFA803E886D
:1004E000828C83E709F0A3DFFA8032E309F608DFA4
:1004F000FA8078E309F208DFFA807088828C83E35F
:1005000009F0A3DFFA806489828A83E0A3F608DF1A
:10051000FA805889828A83E0A3F208DFFA804C804F
:10052000D280FA80C680D4806980F28033801080C7
:10053000A680EA809A80A880DA80E280CA80338927
:10054000828A83ECFAE493A3C8C582C8CCC583CC65
:10055000F0A3C8C582C8CCC583CCDFE9DEE7800D37
:1005600089828A83E493A3F608DFF9ECFAA9F0ED17
:10057000FB2289828A83ECFAE0A3C8C582C8CCC575
:1005800083CCF0A3C8C582C8CCC583CCDFEADEE843
:1005900080DB89828A83E493A3F208DFF980CC8828
:1005A000F0EF60010E4E60C388F0ED2402B4040049
:1005B00050B9F582EB2402B4040050AF23234582E6
:1005C00023900CFF73EF8DF0A4A8F0CF8CF0A4283B
:1005D000CE8DF0A42EFE22BC000BBE0029EF8DF0C4
:1005E00084FFADF022E4CCF875F008EF2FFFEE3376
:1005F000FEEC33FCEE9DEC984005FCEE9DFE0FD525
:10060000F0E9E4CEFD22EDF8F5F0EE8420D21CFEF8
:10061000ADF075F008EF2FFFED33FD400798500661
:10062000D5F0F222C398FD0FD5F0EA22C2D5EC3006
:10063000E709B2D5E4C39DFDE49CFCEE30E715B2BA
:10064000D5E4C39FFFE49EFE120DB7C3E49DFDE415
:100650009CFC8003120DB730D507C3E49FFFE49ED6
:10066000FE22C5F0F8A3E028F0C5F0F8E582158277
:1006700070021583E038F022BB010A89828A83E088
:10068000F5F0A3E022500687F009E71922BBFE0728
:10069000E3F5F009E3192289828A83E493F5F07483
:1006A000019322BB010789828A83020E42500B0903
:1006B000C5F027F7C5F01937F722BBFE0D09F8E39F
:1006C00025F0F3C5F019E338F322F889828A8374A0
:1006D000019325F0C5F0F8E4933822BB010A898222
:1006E0008A83F0E5F0A3F0225006F709A7F019225B
:1006F000BBFE06F3E5F009F31922EF2BFFEE3AFEFD
:10070000ED39FDEC38FC22C3EF9BFFEE9AFEED992C
:10071000FDEC98FC22E88FF0A4CC8BF0A42CFCE933
:100720008EF0A42CFC8AF0EDA42CFCEA8EF0A4CD73
:10073000A8F08BF0A42DCC3825F0FDE98FF0A42C87
:10074000CD35F0FCEB8EF0A4FEA9F0EB8FF0A4CF3A
:10075000C5F02ECD39FEE43CFCEAA42DCE35F0FDEB
:10076000E43CFC2275F008758200EF2FFFEE33FEAB
:10077000CD33CDCC33CCC58233C5829BED9AEC9979
:10078000E58298400CF582EE9BFEED9AFDEC99FC1B
:100790000FD5F0D6E4CEFBE4CDFAE4CCF9A8822262
:1007A000B800C1B90059BA002DEC8BF084CFCECD82
:1007B000FCE5F0CBF97818EF2FFFEE33FEED33FDBB
:1007C000EC33FCEB33FB10D703994004EB99FB0FA0
:1007D000D8E5E4F9FA227818EF2FFFEE33FEED3377
:1007E000FDEC33FCC933C910D7059BE99A4007ECEF
:1007F0009BFCE99AF90FD8E0E4C9FAE4CCFB227536
:10080000F010EF2FFFEE33FEED33FDCC33CCC833C9
:10081000C810D7079BEC9AE899400AED9BFDEC9A2B
:10082000FCE899F80FD5F0DAE4CDFBE4CCFAE4C8A3
:10083000F922EB9FF5F0EA9E42F0E99D42F0EC646C
:1008400080C864809845F022EB9FF5F0EA9E42F064
:10085000E99D42F0E89C45F022E8600FECC313FCF0
:10086000ED13FDEE13FEEF13FFD8F122E0FCA3E041
:10087000FDA3E0FEA3E0FF22E0F8A3E0F9A3E0FA85
:10088000A3E0FB22ECF0A3EDF0A3EEF0A3EFF02247
:10089000A8828583F0D083D082121087121087122D
:1008A0001087121087E473E493A3C583C5F0C58352
:1008B000C8C582C8F0A3C583C5F0C583C8C582C8B2
:1008C00022A42582F582E5F03583F58322E0FBA39F
:1008D000E0FAA3E0F922EBF0A3EAF0A3E9F022ECBE
:1008E0008EF0A4CCC5F0CCCDF8EFA4CEC5F02DFD94
:1008F000E43CFCE8A42EC8C5F03DFDE43CFCEFA4BC
:10090000FFE5F028FEE43DFDE43CFC22EF4E6012E2
:10091000EF60010EEDBB010B89828A83F0A3DFFC3F
:10092000DEFA2289F05007F709DFFCA9F022BBFEAE
:10093000FCF309DFFCA9F0227F01122D681226CEFC
:10094000902E20E030E2F9900211E025E024BEF57F
:1009500082E434361226FF9001E11226B77F01129D
:10096000273D4E70089001E1122749801AEF25E0DB
:10097000FFEE33FE9001E2E02FFF9001E1E03EFE4A
:100980007C007D03120DB7EE1226F74E700312267F
:10099000EF1226EF90015DE07002A3E0700F90016E
:1009A00061E0FFA3E090015DCFF0A3EFF09001E3E1
:1009B00012107000002710E4FF122D68E49001DE91
:1009C000F09001DEE0FF7E00C394057480948040C7
:1009D0000302139DEF2401FFEE33FE122711FDD316
:1009E000EF9D7480F86E984003021394E4FF122682
:1009F000CE902E20E030E2F9900211E025E024BDF7
:100A0000F582E434361226FF9001DF1226B7FF127A
:100A1000273DC390015EE09FFF90015DE09E900145
:100A2000DF8FF0120E429001DFE0FAA3E0FB9001AD
:100A300063EAF0A3EBF074FFF523F524F525F52622
:100A4000E4F527F528F529F52AF52EF52DF52CF5F1
:100A50002B9001CEEAF0A3EBF0E4F522C3E522945B
:100A6000087480948040030212DEE52225E024C051
:100A7000F582E43401F583E0FEA3E0FF4E600280DE
:100A8000089001DFE0FEA3E0FF1226A9EEF0A3EF3D
:100A9000F01226A9E0FEA3E0FFD39528EE952740AB
:100AA0000C85272985282A8E278F28800DD3EF953E
:100AB0002AEE952940048E298F2AC3EF9524EE95BE
:100AC00023500C8523258524268E238F24800DC357
:100AD000EF9526EE952550048E258F261226A9E047
:100AE000FEA3E0FFE4FCFDE52E2FFFE52D3EFEED2D
:100AF000352CFDEC352B122684052202123CAE2744
:100B0000AF28EFFB122670AE29AF2A12266DAE2356
:100B1000AF2412266DAE25AF2612266DFC78021288
:100B200010399001D0EEF0A3EFF090015FE0FEA34A
:100B3000E0FF4E70089001D0122749801E7C007D96
:100B400003120DA59001D1E02FFF9001D0E03EFEF1
:100B50007802EFCEC313CE13D8F9FF90015FEEF009
:100B6000FAA3EFF0FB1226E7FFE4FCFD9001E81288
:100B70001064EBFFEAFEE4FCFD9001EC121064E46B
:100B8000FF121DDA900167EEF0A3EFF0900211E082
:100B900064019001E3700B1226E42400FFEE34F0B0
:100BA00080091226E42400FFEE34E8FE3395E0FDD0
:100BB000FC1227539001DEE004F00211A1902E23D5
:100BC000E4F09001E3121058E8C0E0E9C0E0EAC0A8
:100BD000E0EBC0E0122711FFFBE4FAF9F812272E30
:100BE00012340AD0E0FBD0E0FAD0E0F9D0E0F812FD
:100BF0002753E47F507EC3FDFC9001E3121058D3CD
:100C0000121012400A9001E31210700000C350123B
:100C1000272EEC33500A9001E31210700000000000
:100C200090016DE0FAA3E0FB4A700512272E8022A6
:100C30007E007F02EBFDEAFC1210BFECF8EDF9EE4E
:100C4000FAEFFB12272E120EDAE47B03FAF9F81200
:100C50000F8090016DEEF0A3EFF090015BE0700269
:100C6000A3E0700F90016DE0FFA3E090015BCFF077
:100C7000A3EFF09001261226E4FFE4FCFD120EDA49
:100C800090012612106490012AE475F001120E42C0
:100C900090012AE0FEA3E0FFD3940AEE94004029DD
:100CA000EFFBEEFAE4F9F890012612104C120F80D7
:100CB000900124EEF0A3EFF0E490012AF0A3F0906D
:100CC00001261210700000000090012CE07002A3B9
:100CD000E0703A900124E0FEA3E0FFC3900168E0D9
:100CE0009FFF900167E09EFE12369B900122EEF07E
:100CF000A3EFF0D39406EE9400401290012C7403FD
:100D0000F0A374E8F0A3E475F001120E4290016DB7
:100D1000E0FEA3E0FF2212295740030217E39001EF
:100D20000812292AFDE5F0FC122927FFAEF0D39D19
:100D3000EE9C402E1229C8D3EF9430EE9475400CEF
:100D40009001DC7475F0A37430F08010120E58C35B
:100D50009DFEE5F09C9001DCF0A3CEF0E49001B89C
:100D60008060120E58FFAEF0C3ED9FFBEC9EFAD3ED
:100D7000EB9410EA9427400C9001DC7427F0A374E4
:100D800010F08009C3ED9FFFEC9E1229739001DCE7
:100D9000E0FFA3E09001B8CFF0A3EFF0300718D345
:100DA000E0942C9001B8E0940140139001BA7427AC
:100DB000F0A37410F08007E49001BAF0A3F0E4907F
:100DC00001DCF0A3F090013FE0604A122930D39497
:100DD00000EE648094804014D3EF9509EE950840AE
:100DE0000B900203E4F0A37464F0801BD390020420
:100DF000E09400900203E09400400C900105122959
:100E00002AFFE5F0122973D204900209740FF0A3AF
:100E100074A0F0800B90020712298FE4FF12350DA9
:100E2000D39001DDE094009001DCE0648094805078
:100E3000030217B8E0FEA3E0FF90010512291E127D
:100E40002930EE3395E0FDFCE47BB87A88F9F8C3ED
:100E5000121012500A9001DC7488F0A374B8F0D319
:100E6000900206E09400900205E094005008900083
:100E7000F1E06420702AE509240AFFE43508FE90B9
:100E800001DCE0FCA3E0FDC39FEC9E5013ED940059
:100E9000EC6480948040381229307C007D0A8029DF
:100EA00030072C90013FE07011122930C39517EEE6
:100EB0009516501B7C027DBC800F122930C395090A
:100EC000EE9508500A7C027DBC120E0C122972901D
:100ED000013FE0700302173D900207E07002A3E0BB
:100EE00070149001DCE0FEA3E0FDEEFCE4FF1217BD
:100EF000E41229728035122930C3900135E09FFF3A
:100F0000900134E09EFE12369BD3EF9428EE64806D
:100F100094804017D3900208E094C8900207E094B0
:100F200000400874FF75F09C120E42900134E0FE00
:100F3000A3E0FF7C007D0F1210BFECF8EDF9EEFA94
:100F4000EFFB122930EE3395E0FDFC120EDAE47B64
:100F500010FAF9F8120F80900134EE800B9001DC4A
:100F6000E0FFA3E0900134CFF0A3EFF0900134E074
:100F7000FEA3E0FFD39405EE9400400EEF9410EE34
:100F8000940050069001DCEE8016900130E0FEA344
:100F9000E0FF900135E02FFF900134E03E9001DC4E
:100FA000F0A3EFF0D39001DDE094309001DCE06439
:100FB0008094F540077475F0A37430F0E5DB5404B9
:100FC000704112293090010E12291E9001DDE0249B
:100FD000A8FF9001DCE08022E5DB54047025122993
:100FE0004B900130E0FEA3E0FF90010E12291E900D
:100FF000010E12292A24A8FFE5F03461FE90010BAE
:1010000012291E229001DEEFF0A3ECF0A3EDF0EF29
:10101000122BCDE0FEA3E0C39DFFEE9CFE12369B9B
:10102000D3EF9428EE64809480401C122B9D121004
:101030007000000000122B69E4F0122BE7122BC99C
:10104000EEF0A3EFF0803B122B58122BFD403390B3
:1010500001DFE0FCA3E0FDD3EF9DEE9C400B90018F
:10106000DEE0122B90E04401F09001DEE0FF122B55
:101070005CE0FAA3E0C39DEA9C5007122B8FE0448A
:1010800002F09001DEE0122BA2C083C08212105841
:10109000122BE7E4FCFD120EDAD082D0831210642A
:1010A0009001DEE0FF122BF0E475F001120E42EF2A
:1010B00075F007A424C6F582E43436F583E493FE84
:1010C000740193FF9001DEE0FDC454F0242EF582FC
:1010D000E43402F583E0FAA3E0C39FEA9E500302E2
:1010E0001A50ED122BF0E0FEA3E0FFFBEEFAE4F95C
:1010F000F89001DEE0122BA212104C120F8090012A
:10110000E1121064122B52E0FCA3E0C39FFFEC9E9F
:10111000FE12369B9001E5EEF0A3EFF09001DEE0C9
:10112000FD75F007A424C1F582E43436F583C37459
:1011300001939FE4939E401FED122B5CE0FEA3E021
:101140004E60149001DEE0FB122BDAE0FEA3E0C358
:1011500094B8EE940B501E9001DEE0FF122B5CE081
:10116000FCA3E04C7008EF122BDAE4F0A3F0122B92
:1011700052EE0219F7EB60030219FD9001E7F090BF
:1011800001E5E0FEA3E0FFD39450EE94004006A3F7
:101190007408F080329001DEE0122B90E06403606E
:1011A00026D3EF943CEE940040089001E77404F0DD
:1011B0008015D39001E6E094289001E5E09400408A
:1011C000069001E77402F0122B58E0FEA3E0FFE462
:1011D000FCFD122C09D312102840119001E7E0FF0A
:1011E000122B58E48FF0120E42021A33D39001E60C
:1011F000E094509001E5E094004058122B58C083D1
:10120000C082E0FEA3E0FF9001E7E0FDC3EF9DFF99
:10121000EE9400D082D083F0A3EFF08036122B58EA
:10122000E0FEA3E0FF4E700D122C09EBFFEAFEE991
:10123000FDE8FC80167C007D071210BF122C0912FD
:101240000EDAE47B08FAF9F8120F80122B58EEF050
:10125000A3EFF0122B9D12107000000000122B69FA
:10126000E4F09001E112104C122BC9EEF0A3EFF064
:10127000122B58122BFD405F9001E0E09FFF900180
:10128000DFE09EFE12369B9001DEE075F007A4249D
:10129000C3F582E43436F583D37401939FE4939EBF
:1012A000400F9001DEE0FF122B5C122BAFE4F080C8
:1012B000269001DEE0FF75F007A424C5F582E43432
:1012C00036F583E493FE122BBBE0C39E5009122B2C
:1012D00058122BAFE004F0122BE722D39001FEE06E
:1012E0009F9001FDE09E400AA3E09FF09001FDE089
:1012F0009EF090020212321A900201E09C400CA370
:10130000E09FF0900201E09EF08002D28AD390022A
:1013100000E09F9001FFE09E400AA3E09FF0900153
:10132000FFE09EF012322C5003123264D39002047C
:10133000E09F900203E09E400AA3E09FF09002032A
:10134000E09EF0D3900206E09F900205E09E400AE6
:10135000A3E09FF0900205E09EF0D390020CE09F86
:1013600090020BE09E400AA3E09FF090020BE09EEB
:10137000F0D3900208E09F900207E09E400AA3E0AD
:101380009FF0900207E09EF0D390020AE09F900247
:1013900009E09E400AA3E09FF0900209E09EF0D38E
:1013A0009001BBE09F9001BAE09E400AA3E09FF04D
:1013B0009001BAE09EF090020E12321A90020DE0F7
:1013C0009C400AA3E09FF090020DE09EF012323A9A
:1013D0005003123264D3900197E09F900196E09EF3
:1013E000400AA3E09FF0900196E09EF090019912D0
:1013F000326A900198E09C400AA3E09FF090019827
:10140000E09EF0D39001ADE09F9001ACE09E400AD9
:10141000A3E09FF09001ACE09EF0D39001AFE09F7D
:101420009001AEE09E400AA3E09FF09001AEE09EE6
:10143000F090017412326A900173E09C400AA3E0BC
:101440009FF0900173E09EF0D39001BDE09F90016A
:10145000BCE09E400AA3E09FF09001BCE09EF01229
:10146000324850031232641232565003123264D39F
:1014700090012DE09F90012CE09E400AA3E09FF098
:1014800090012CE09EF022C0E0C0F0C083C082C07A
:10149000D0E8C0E0D2AFD39001FEE094009001FD0F
:1014A000E094004003123213D3900202E0940190C2
:1014B0000201E0940040051232138002D28AD390D8
:1014C0000200E094009001FFE09400400312321308
:1014D00012322C5003123225D3900204E094009073
:1014E0000203E094004003123213D3900206E0940A
:1014F00000900205E094004003123213D390020CD6
:10150000E0940090020BE094004003123213D39059
:101510000208E09400900207E094004003123213A6
:10152000D390020AE09400900209E0940040031274
:101530003213D39001BBE094009001BAE0940040D4
:1015400003123213D390020EE0940190020DE09446
:1015500000400312321312323A5003123225D39054
:101560000197E09400900196E0940040031232133A
:10157000D3900199E09401900198E0940040031207
:101580003213D39001ADE094009001ACE0940040A0
:1015900003123213D39001AFE094009001AEE094B7
:1015A000004003123213D3900174E0940190017350
:1015B000E094004003123213D39001BDE0940090F8
:1015C00001BCE0940040031232131232485003125F
:1015D00032251232565003123225D390012DE09459
:1015E0000090012CE094004003123213D0E0F8D0B8
:1015F000D0D082D083D0F0D0E0329001E7EFF0126B
:10160000288EE070279001E7E01228C512104CE404
:10161000FBFAF9F8C312102860129001E7E01228D3
:10162000E312104CE4F8C312102870571228F790F8
:1016300001E8121F16EEF0A3EFF0ED12288EE06025
:1016400029ED75F00AA424ADF582E43436F583C0A3
:1016500083C082900211E0D082D08312289C400A7D
:101660009001E7E012288E7405F0122843E0D3942D
:101670000074809480400612288DE014F09001ECF4
:10168000021F121228C012104C9001F012106412A6
:1016900028E212104C9001F41210649001E7E0125D
:1016A00028D412104CEFF9122900E9F8121039EF82
:1016B000FBEEFAEDF9ECF8122900120EE79001F8B2
:1016C0001210649001F012104C9001EC121058129C
:1016D0000EDA9001F8121058120EDA1228F11228C0
:1016E000C01228FD1228E21228FD122906121058F5
:1016F000120F801228F19001F4121F16EEF0A3EFE2
:10170000F0ED75F00AA424A9F582E43436F583C01F
:1017100083C082900211E0D082D08312289C400FB7
:101720001228437405F01228F79001F41210649007
:1017300001F412104C22EFFBEEFA12104CC3EF9B97
:10174000FFEE9AFE12369B9001E7E0FD75F013A4C0
:10175000241CF582E43402F583227FFF7A007900AD
:101760001236B17FDC7A0179001236B17E007F1427
:101770007D007B017A0179FC1210EC902DE0E4935E
:10178000900001F09000047411F0A37422F0A3748F
:1017900033F0902DE2E493900012F0902DE3E49367
:1017A000900014F09000FB7401F09000367410F07B
:1017B0009000F1F0900024F0A37420F07B017A00F7
:1017C00079409001021210B67A0079449001081213
:1017D00010B67A0079429001051210B67A00792E7F
:1017E00090010B1210B67A00792A90010E1210B6F1
:1017F0007A0079289001111210B67A007960900170
:101800001F1210B67A0079809001B21210B67A00D9
:1018100079189001391210B67A00791B90013612AE
:1018200010B67A0079329001141210B67A00792637
:101830009001171210B67A00793490011A1210B67E
:101840009001141210AD740175F05E120EBB900180
:10185000171210ADE475F0AF120EBB90011A121002
:10186000ADE475F0FA120EBB75160175175E7508BA
:10187000007509FA7B017A00795090013C1210B68C
:101880009000527411F0A314F0A37407F090005864
:10189000740BF0A37406F0A304F09001FDF0A374A0
:1018A000D0F0E49001FCF02290017F1229CF940443
:1018B000EE94005022122986EF25E0FFEE33FE74ED
:1018C000772FF58274013EF583ECF0A3EDF09001E3
:1018D0007F1229A20221569001E07401F09001E0EC
:1018E000E0FFC39404748094805021EF122965FCBA
:1018F000A3E0FDEF25E02475F582E43401F583ECE7
:10190000F0A3EDF09001E0E004F080D190013FE021
:1019100060028053122927FF122986C3EF9DFFE53D
:10192000F09CFE12369BC3EF9428EE6480948050A6
:101930003690010812292AFFC3900101E09FFF9011
:101940000100E095F0FE12369BC3EF9414EE648024
:1019500094805005900108800390010212292AFF0B
:1019600090017DE5F0800B900100E0FFA3E0900185
:101970007DCFF0A3EFF09001DC12107000000000AA
:10198000E49001E0F09001E0E0FFD3900180E09F5F
:1019900090017FE0940040259001DC1210589001E6
:1019A000E0E0122965FEA3E0FFE4FCFD120EDA90F0
:1019B00001DC1210649001E0E004F080C89001DCCA
:1019C00012104CECC0E0EDC0E0EEC0E0EFC0E090E3
:1019D000017F1229A9D0E0FFD0E0FED0E0FDD0E0E9
:1019E000FC120F809001DC1210649001DC02104C9C
:1019F000758D20438D20538D7FE4F5B275B6FF754C
:101A0000B7FF75B2A243B20153A8FB538B7F758B0E
:101A100010438B08E58B20E7030080F8538B7F751C
:101A20008B11438B08E58B20E7030080F890023F81
:101A3000E5B5F0A3E5B4F0758B01E4F5B212360B11
:101A4000E4F58D90011DE0FEA3E0FF4E701012360C
:101A50006DFD90011DE5F0F0A3EDF00222BC123601
:101A60006DFDC3EF9DFFEE95F0FE12369BD3EF9414
:101A70000AEE64809480402412366DFFC390011EEC
:101A8000E09F90011DE095F05006E475F00180079D
:101A900090011D74FFF5F0120E42804090011D125E
:101AA00036767D031210BFECC0E0EDC0E0EEC0E082
:101AB000EFC0E012366DFFAEF0E4FCFDD0E0FBD0ED
:101AC000E0FAD0E0F9D0E0F8120EDAE47B04FAF99B
:101AD000F8120F8090011DEEF0A3EFF0900211E0DC
:101AE000640190011D70071236767D05800512365F
:101AF000767D0E1210BFE47B64FAF9F8120F809025
:101B0000019EEEF0A3EFF09001A0E07002A3E07060
:101B10000D90019EE0FFA3E0A3CFF0A3EFF09001B2
:101B2000A6E07002A3E0700F90011DE0FFA3E0901B
:101B300001A6CFF0A3EFF0229001DC12298FD39001
:101B400001BDE094009001BCE094004011122927EF
:101B5000FF9001081210ADE5F08FF0120EBB90015E
:101B6000FDE07002A3E0600B9001DCE4F0A374647C
:101B7000F0800B90001AE0641170037420F0900163
:101B80003FE0600F7E007F0A7D007B017A01794093
:101B90000210EC900140121058E8C0E0E9C0E0EA01
:101BA000C0E0EBC0E0122927FFAEF0E4FCFDD0E07E
:101BB000FBD0E0FAD0E0F9D0E0F8120EDA90014064
:101BC0001210649001441229A29001DC1229CF90D6
:101BD0000149E09F900148E09E5003022458900183
:101BE0004012104CECC0E0EDC0E0EEC0E0EFC0E011
:101BF0009001441229A9D0E0FFD0E0FED0E0FDD052
:101C0000E0FC120F8090014012106490010812292C
:101C10002A2432FFE435F0FEE4FCFD90014012106E
:101C200058D3121028402E9001FDE07002A3E070FE
:101C3000242004219001461229A3D3900147E09467
:101C400005900146E094004018122915E4900146E1
:101C5000F0A3F0800C122915E4900146F0A3F0C225
:101C60000490014012107000000000E4900144F064
:101C7000A3F0900148F0A3F0229001E3EFF0902E42
:101C800022E0FF9001E7E4F0A3EFF0758A50902E78
:101C9000227401F01232E27404F0A3E4F09001E443
:101CA000F09001E4E0FFC3940D748094804003023F
:101CB000256DEFF87E02E4088006CEA2E713CE136E
:101CC000D8F8FF9001E5EEF0A3EFF04E7007900119
:101CD000E5F0A304F0902E207401F0902E20E03067
:101CE000E2F99001E3E0FF902E001232E9E0FCA35C
:101CF000E0D394FEEC94074040123310E0FEA3E0E2
:101D0000FF9001E5E0FCA3E0FDEF2DFFEE3CFEC3FC
:101D1000EF94FFEE94079001E3E075F002902E102F
:101D2000500B1210A1EC8DF0120E4280501210A137
:101D30007407F0A374FFF080449001E3E0FF1232D7
:101D4000E6E0FCA3E0FD9001E5E0FAA3E0FBD3EDC3
:101D50009BEC9A4021123310C083C082C3A3E09B46
:101D6000FF0582D5820215831582E09AD082D08346
:101D7000F0A3EFF080071232E2E4F0A3F0902E20FF
:101D8000E4F0F58D9001E4E004F00224819001E795
:101D9000A3E0902E22F0758A30227F5E7E017DFACC
:101DA0007C00122957400302266C3007209001BAAC
:101DB000E07002A3E0600875161375178880067539
:101DC00016077517D0750806750940804A900211EC
:101DD000E0F9640170077E017F5EFC7DFA9001D618
:101DE000E0FAA3E0FB2FF517EA3EF516CEECCEEDB8
:101DF000FFEB2FF509EA3EF508E964017019A3E04D
:101E0000FEA3E0FF2517F517EE3516F516EF2509A9
:101E1000F509EE3508F50890010512292AFFAEF004
:101E2000C39517EE9516500F90013FE0601AC3EF6F
:101E30009509EE95084011900205E07002A3E0704C
:101E40002990013F04F080229000F1E0642090028C
:101E5000057005F0A3F080077401F0A374F4F0E4BA
:101E600090013FF09002031229B490013FE0FF601F
:101E700016900024E0641090003670057410F08015
:101E8000037420F012299790004BEFF022CBEFCB98
:101E9000EEFAC3E52E9BFFE52D9AFEE52C9400FD9E
:101EA000E52B94008F2E8E2D8D2CF52B2290021178
:101EB000E025E024BDF582E43436F583E5822FF594
:101EC00082E43583F583E49322E52225E024BEF500
:101ED00082E43401F58322CFF0A3EFF0902E20E4CA
:101EE000F053B2E1758A3043B21043B20222123588
:101EF000EE53B2E143B20C758A5043B202902E20E9
:101F00007401F022121058900167E0FEA3E02290C5
:101F100001E1E0FFA3E0CF900161F0A3EFF022F533
:101F200083E49375F002902E001210A1E0FFA3E06D
:101F300022900211E02441F582E43402F583E0228C
:101F4000F583E4932420F582E4342EF58322900176
:101F5000E302104C7F047E007D007B012212367E5E
:101F6000900161E0FEA3E0FF22E0FCA3E0FDECFEB7
:101F7000EDFF22120EDA9001E3021064E4F526F57B
:101F800025F524F523F526F525F524F523F522126C
:101F900029BE502AE52225E0240AF8E6FE08E6FFDD
:101FA000E4FCFDE5262FFFE5253EFEED3524FDECA6
:101FB00035238F268E258D24F523052280D1E47BC1
:101FC00005FAF9F8AF26AE25AD24AC23120F8090A8
:101FD0000183EEF0A3EFF0E47526A8752561F524E2
:101FE000F523F5221229BE5055900183122939C3D9
:101FF0001229C812369BD3EF940AEE648094804075
:1020000012900183E0FEA3E0FF90015BE0FCA3E0FF
:10201000FD800790015B122939C31229C83395E06E
:10202000FDFCE5262FFFE5253EFEE5243DFDE523ED
:102030003C8F268E258D24F52305220227C4E47FBC
:10204000607EEAFDFCAB26AA25A924A823D31210A2
:1020500028400BE47526607525EAF524F523AE25A6
:10206000AF26229001EC12104C9001E7E0FB75F0D6
:1020700013A42417F582E43402F583121064EB757F
:10208000F013A42422F582E43402F58312104C905C
:1020900001EC121058120EF59001E7E0FB75F013F9
:1020A000A42413F582E43402F583121064EB75F076
:1020B00013A4241BF582E43402F5832275F0021286
:1020C00010A1E493FE740193FFED75F013A4241C9A
:1020D000F582E43402F583E0FCA3E0D39FEC9E227A
:1020E0009001E7E0FB75F013A42417F582E43402B5
:1020F000F58322EB75F013A4241EF582E43402F577
:102100008322EB75F013A42413F582E43402F583E3
:10211000229001F41210649001EC02104C12106431
:102120009001F402104CEB75F013A42422F582E424
:102130003402F5832290014012104C9001081210D5
:10214000ADEE8FF0020EBB9001021210AD020E58E0
:102150009001DCE0FEA3E0FF22E52225E0240AF85E
:10216000E6FE08E6FFE0FCA3E0FD22900105121068
:10217000ADE4F5F0020EBBD39001FEE094009001B7
:10218000FDE094002225E02477F582E43401F58314
:10219000E022EE9001DCF0A3EFF0221210AD7461AA
:1021A00075F0A8020EBB900100E0FCA3E0FD2274D4
:1021B00003F0A374E8F0229001FF7403F0A37420ED
:1021C000F022E475F001020E42E0FEA3E0FBEEFA1D
:1021D000E4F9F822F0A3F09000367410F022C3E581
:1021E0002294057480948022EF9DFFEE9CFE22E0F5
:1021F000FEA3E0FFC322E49001DCF0A3F090014CC9
:10220000F0A3F090014AF0A3F012344E7E007F0458
:102210007D007B017A01795B1210EC7F011234D1D1
:10222000902E14E0FEA3E0FF1232DB90013C12106E
:10223000ADEE8FF0120EBBE4FF1234D112330870F2
:1022400005902E128003902E101232EF9001DCE0E8
:10225000FCA3E0FDC39405EC94004009D3ED94F099
:10226000EC94074017EF64014E700590014C800418
:10227000E490014AF0A3F0E4FF1234D1902E23E45D
:10228000F01233087005902E128003902E10123237
:10229000EF90001D7410F0EF64014E9001DC7008A7
:1022A0001232D612331A80061232D6123324E03E8E
:1022B000FE1232FC22C0E0C083C082C0D075D018AC
:1022C000D2AFE5DB30E422D205C202E5DF30E01414
:1022D00012368DE0F5DFEF64077065D28A90000753
:1022E000F0022B43C201022B46E5DB30E52C9000C7
:1022F000F0E064AA7017758A10F5DAC2AFF5B2F58E
:10230000A8F5A9F58B758E01758DC080FED20030C1
:102310000204C2028050C205804CC202E5DB30E1FB
:1023200021E5DB30E04012368DE0F5DFEF24F96087
:102330000824EE700BD2068007D28A900007E4F0E2
:10234000802120010A782FA6DFD201D20280171245
:10235000368DE5DFF0EF642470099001FF04F0A3EF
:1023600074F4F0782F0675DBFFD0D0D082D083D004
:10237000E0329001E112104C9001DEE0C454F024F0
:102380002CF582E43402F58322EBC454F0242AF5C0
:1023900082E43402F583E4F0A3F09001DEE0FFC4B0
:1023A00054F0242EF582E43402F583E4F0A3F0EF38
:1023B000C454F02433F582E43402F583229001DE24
:1023C000E0FBC454F02426F582E43402F58322E0D5
:1023D000FDA3E09001DFCDF0A3EDF0EFC454F024B5
:1023E00032F582E43402F583229001DEE0C454F039
:1023F0002430F582E43402F58322C454F02434F509
:1024000082E43402F583229001DFE0FEA3E0FF22A4
:10241000C454F0242AF582E43402F58322E0FEA3BA
:10242000E0FFD39400EE9400229001E1021058E402
:102430009001E0F0A3F0200603022CBE3007030257
:102440002CBEC206900211E07005902E12800390FF
:102450002E10E0FFA3E09001E0CFF0A3EFF0900199
:10246000E0E0FFA3E09001DECFF0A3EFF0E4FF1285
:1024700034D11233087005902E128003902E10E094
:10248000FDA3E09001E0CDF0A3EDF0EF64014E90EC
:1024900001E070081232D612331A80061232D612B8
:1024A0003324E03E9001DCF0A3EFF09001DCE0FE8D
:1024B000A3E0FF1232FC900211E09001DE7009E00F
:1024C000FFA3E0902E128007E0FFA3E0902E10CF34
:1024D000F0A3EFF09001FF7403F0A37420F0221238
:1024E00030DE1235CE7E007F2C7D007B017A0179B3
:1024F000861210EC12082EE490017FF0A3F09001F8
:102500006DF0A3F090016BF0A3F090016FF0A3F0D9
:102510007F05122F64900100E0FEA3E0FFA31229C3
:102520001E900100E0FEA3E0FF12291B12294B9030
:10253000010B12297B90011112297B90010E1229A7
:102540004EE490013FF0FE7F0AFD7B017A01794065
:102550001210ECE490020BF0A3F09002091229B4DF
:10256000E490004BF012299790020FE0700FC39097
:1025700001FEE094F49001FDE09401500A9001FD09
:102580007401F0A374F4F022E4FEEEC394077480A7
:1025900094805038EE75F005A42428F582E4342E9A
:1025A000F583C083C082900211E0D082D08375F0A1
:1025B000021210A112269CFDEE75F005A42427F549
:1025C00082E4342E122720EDF00E80BEEF701090C2
:1025D0000211E0700A90014AE07002A3E0601290DC
:1025E0000211E06401701490014CE07002A3E070ED
:1025F0000A900211E0902E217412F02200000000D7
:102600000502AB5374AA7583F5758255A57455758B
:1026100083FA7582AAA574A57583F5758255A522DE
:102620000203020AB0B00BB6B60CFFFF09020208A3
:10263000FFFF0D77770E04041307071410101080A6
:1026400080150000160000011212121207110B0B68
:102650001B0F04040404040101010111110B0810F3
:1026600012100604080302040104787FE4F6D8FD82
:1026700075812F022E94020000022ED9E493A3F854
:10268000E493A34003F68001F208DFF48029E49389
:10269000A3F85407240CC8C333C4540F4420C88380
:1026A0004004F456800146F6DFE4800B0102040882
:1026B0001020408090357CE47E019360BCA3FF54E1
:1026C0003F30E509541FFEE493A360010ECF54C0D0
:1026D00025E060A840B8E493A3FAE493A3F8E49358
:1026E000A3C8C582C8CAC583CAF0A3C8C582C8CA60
:1026F000C583CADFE9DEE780BE12364253A87F12E7
:102700003627121F3A12349112080E43A880E4F5BE
:102710008D9000F17420F0122FE49001FCE0146021
:102720001514601714603814604A240470E01229EC
:10273000D612080380D8122CBF80311235AB90001E
:1027400020E0FF64206008EF642160031230629093
:102750000025E0641070B79001FC7404F080AF12A3
:10276000080A9001FF7403F0A37420F09001FC7438
:1027700002F0809A1233C2900025E06410608F123C
:102780000803808A9001DCEFF0E4A3F09001DCE024
:10279000FFA3E0C39F502E12111812365C90016FF8
:1027A000EEF0A3EFF08E14F515C8740AC87400FC9F
:1027B000E4FDFB7A00790CFE7F0A120D7F9001DDAB
:1027C000E004F080C712275C900100EEF0A3EFF068
:1027D00090016D1229CF900133E09FFF900132E00C
:1027E0009EFE12369B7C007D05120E0C900130EC93
:1027F000F0A3EDF090016DE0FFA3E0900132CFF087
:10280000A3EFF022900020E0642070037421F09088
:1028100001361210AD120E58641045F070031233D9
:1028200079900001E064AA700312327512332E20F1
:10283000030890001AE06410700B90001A7411F0F5
:10284000C2031208039000FBE06006E4F09001FC74
:10285000F0900173E07004A3E064017015900173BF
:10286000F0A3F09001BC7407F0A374D0F0E49001E1
:10287000FCF030000CC2009001FF7401F0A374F46E
:10288000F022308A789001FDE07002A3E0706E9033
:102890000173E07002A3E07064F5B2758D20438D82
:1028A00020758D9043A808D2AF758B4090012CE025
:1028B000FEA3E0FF4E6005758E148003758E3F20E9
:1028C000002F20052CE5DB54047026758AA4200512
:1028D00020E5DB5404701AF5867587030000007547
:1028E0008601EF4E60047F2880027F7F7E00121AEF
:1028F000BB758B01758A3053A8F712360B227E0008
:102900007F137D007B017A0279131210ECE4FBEB5C
:10291000C39401748094805051900211E0FFEB75D4
:10292000F00AA424A7F582E43436F583E5822FF576
:1029300082E43583F583E493FFE4FCFDFE1228D3A3
:102940001210641228D312104CEF04F87E007401A8
:10295000088005C333CE33CED8F9FFEE3395E0FDC2
:10296000FC1229061210640B80A522CFF0EFA3F011
:102970009001051210AD020E58C3FF90018BE09F2D
:1029800090018AE095F02290011DE0FEA3E0FF2275
:1029900090011DE0FFA3E0CF9001A6F0A3EFF0228D
:1029A0009001DFE0941E9001DEE09400229001AEE1
:1029B0007413F0A37488F0A3E4F0A322E4F0A3F06E
:1029C000A3F0A3F022FF90018AE5F0F0A3EFF0223C
:1029D000900201E07004A3E064017011900007E030
:1029E0006004D28AE4F0E4900201F0A3F090003693
:1029F000E0FF9000FFE06F6039900036E0FD90004E
:102A0000FFF0900007E0900212F0540FF0ED7E000E
:102A100064207005E04420800CEF64104E700B9031
:102A20000212E04410F0900007F0C28A90020112F6
:102A3000298F2274FFF5F0020E42EF2401FDE43EDF
:102A4000FCD3E09D22E475F001020E42C3900149DF
:102A5000E094E8900148E0940322C3900195E0944B
:102A600064900194E0940022C3900235E094B89001
:102A70000234E0940B22C390022FE094F490022ED3
:102A8000E0940122EE8FF0020E42EF2401FDE43EBD
:102A9000FCD3E09D229001DC7408F0A3E4F0A37461
:102AA0003FF0A374DFF0E4FDFCF9758A10538AEF60
:102AB000009001DCE0FEA3E02DF582EE3CF583E41E
:102AC00093FF69F90DBD00010CBC37E5BDDFE29055
:102AD00001DEE0FEA3E0F5828E83E493FFE96F70F0
:102AE000089000017405F08005E4900001F0758AFB
:102AF00030538AEF0022E0FEA3E0FF7C007D0A0253
:102B00000DA59001E3E0902E1075F0020210A1E0F7
:102B1000FDA3E09001DCCDF0A3EDF022900139128D
:102B200010ADEE8FF0020EBB900211E0FF7E00228E
:102B300075F002EF902E100210A190014DE02FFFD2
:102B400090014C2290014BE02FFF90014A2290000F
:102B500013E0FF900210E06F600CEFF090020D7434
:102B600002F0A37458F090020DE07004A3E0640139
:102B70007026900210E0FF7E0064107002D207EF12
:102B800064204E7002C207900025E064106002D2FB
:102B900003E490020DF0A3F022E49001DCF0A3F036
:102BA000758A10538AEF00122DE475EA81E4F5F678
:102BB000F5F475F308F5F275EB0700E5EC30E7FB8B
:102BC000AFF3EFFEADF2EDFF9001361210ADEE8FD8
:102BD000F0120EBBE4F5EC75EB30758A30538AEFDA
:102BE0000022900025E06410703FF5B2758D2043FF
:102BF0008D20538D7F53A8F7F58BE5DB54047013BC
:102C0000200510F58AF5867587030000007586019A
:102C1000758A30758B0190020F7401F09001FF747A
:102C200003F0A37420F012360B22C2D5E830E70F70
:102C3000B2D5E4C39BFBE49AFAE499F9E498F8EC82
:102C400030E717B2D5123440120F80E4C39BFBE487
:102C50009AFAE499F9E498F88003120F8030D50DC0
:102C6000E4C39FFFE49EFEE49DFDE49CFC22E4FFA0
:102C7000EFC3940D74809480502E900211E0FEEF0B
:102C800075F003A42401F582E4342EF583E5822E49
:102C900012269FFEEF75F003A42400F582E4342E83
:102CA000122720EEF00F80C8902F56E0902E2BF0C8
:102CB00022E4F5DA75DA4043DA2030881375D7401C
:102CC00075D64090021104F09000157440F0801108
:102CD00075D74275D642E4900211F0900015744108
:102CE000F05392FE75DA5843A80275B80275F802DF
:102CF000229001E2EFF01235EE9001E2E0FF122D9A
:102D0000689001E2E0FF900211E025E024BDF58229
:102D1000E43436F583E5822FF582E43583F583E4E8
:102D200093FF1224599001E2E0FF02367E9001DE0B
:102D3000EFF07E007F10EEC0E0EFC0E07D00E075B8
:102D4000F010A42426F9740235F0FA7B01D0E0FFDC
:102D5000D0E0FE1210EC9001DEE0122BDA740BF0E2
:102D6000A374B8F02290015CE0243CFF90015BE08A
:102D700034F6FEC390016EE09F90016DE09E50140A
:102D8000900173E07002A3E0701190017304F0A34E
:102D900074F4F022E4900173F0A3F022C105420222
:102DA000410502C1064102120041021100C1074162
:102DB000021000C101012F00C100C102C104C10302
:102DC0004100FF1043023C01023F0012082E7F0128
:102DD000122F6412208890010212291E1214F6127A
:102DE000257A1223181231B0123545022C0F122702
:102DF000347A01795F1210EC1227347A0179671264
:102E000010EC7F121227367A0179BE0210ECEFF82F
:102E10007401088002C333D8FC42AB12268D903671
:102E2000BA93F4529152935391DF22E5B254016068
:102E300006E5A85410700F75B29275B67CE4F5B72C
:102E400043B20143A81022758A30538AEF75860178
:102E5000758F05E4F5AB75AC0F75913E759201D297
:102E60008A2290407F43EC40E493643B70030080EF
:102E70000753A87F000080FC53ECBF2290016DE057
:102E8000FEA3E0FF90016BEEF0A3EFF02290023C76
:102E90001210AD020E58E0FEA3E0FF7C00221226C5
:102EA0008D9036BA934291428843912022782FE642
:102EB000FF2400F582E43400F58322EE30E707C3F7
:102EC000E49FFFE49EFE2203030019001E0014008D
:102ED000197E007D007B010210EC0102200102003E
:102EE00002009600960701F40000000000000000B8
:102EF00000000000000000000000000000000000D2
:102F000000000000000000000000000000000000C1
:102F100000000000000000000000000000000000B1
:102F200000000000000000000000000000000000A1
:1037F000000000000000000000000000000000FBCE
:1038000000000000000000000000000000000000B8
:1038100000000000000000000000000000000000A8
:00000001FF
